:1000000012C02CC02BC02AC029C028C027C026C0BF
:1000100025C024C023C022C021C020C01FC01EC0D4
:100020001DC01CC01BC011241FBECFE5D4E0DEBF25
:10003000CDBF11E0A0E6B0E0EEE3F4E102C0059030
:100040000D92A836B107D9F711E0A8E6B1E001C0DA
:100050001D92AA36B107E1F736D0EFC9D1CF5D9B2B
:10006000FECF8CB90895FC0104C05D9BFECF319694
:100070008CB980818823C9F70895949A92989298B0
:100080009298929892989298929892989298929820
:100090009298929892989298929892989298929810
:1000A000929892989298929A089580E090E005C074
:1000B0009498949894989498949A019628E0883209
:1000C0009207B1F708952F923F924F925F926F92ED
:1000D0007F928F929F92AF92BF92CF92DF92EF92D8
:1000E000FF920F931F93DF93CF93CDB7DEB72E9779
:1000F0000FB6F894DEBF0FBECDBF8C9A8B9A8A9A4A
:10010000B89A539A549A80B5866880BD10BC599AA3
:1001100082E289B980E487B987E886B99398949A8E
:10012000929AC3DFC2DFC1DFC0DFBFDFBEDFBDDF4A
:10013000BCDF84E6682E712C812C912C2E01089452
:10014000411C511CC0985F9BFECF8CB1893409F0D3
:1001500057C05F9BFECF5CB15F9BFECF4CB15F9BF6
:10016000FECF3CB15F9BFECF2CB15F9BFECF9CB11D
:100170005F9BFECF8CB159834A833B832C839D8345
:100180008E831F82C2016FDF5D9BFECF2DE02CB9F5
:100190005D9BFECF3AE03CB9C201BE01685F7F4F74
:1001A0004AE050E068D73B014C015D9BFECF89E4FB
:1001B0008CB9C401B301A2012AE030E090D85D9B64
:1001C000FECF2DE02CB95D9BFECF3AE03CB9C201D9
:1001D0004ADF5D9BFECF8DE08CB95D9BFECF2AE0B0
:1001E0002CB9CE0108963FDF5D9BFECF3DE03CB9C8
:1001F0005D9BFECF8AE08CB95D9BFECF25E499C064
:100200008A3409F098C05F9BFECF5CB15F9BFECF44
:100210004CB15F9BFECF3CB15F9BFECF2CB15F9B8F
:10022000FECF9CB15F9BFECF8CB159834A833B8349
:100230002C839D838E831F82C20115DFC201BE0104
:10024000685F7F4F4AE050E016D73B014C01C09AEF
:1002500014DF2BDFC401B30137D45B016C0120E054
:1002600030E04AE755E4BAD27B018C0120E030E06F
:1002700040E85FE3FED388231CF461E070E01FC018
:10028000C801B70120E03FEF4FE757E49CD31816B1
:100290009CF4C601B50120E030E040E251E49ED27A
:1002A000D9D006C080E991E00197F1F76150704024
:1002B00061157105B9F706C0C801B701CBD0CB01F4
:1002C0000197F1F7DADE5D9BFECF3AE43CB980E0BE
:1002D00090E020E010C09498369A3699FECF5D9B4E
:1002E000FECF2CB9949A369A3699FECF34B125B107
:1002F0005D9BFECF3CB9019638E08832930759F7F1
:100300005D9BFECF2CB95D9BFECF1CB85D9BFECFE5
:100310008FEF8CB95D9BFECF2FEF2CB95D9BFECF8D
:100320003FEF3CB95D9BFECF8FEF8CB95D9BFECF5D
:100330002FEF2CB907CFC09AA0DEB7DEC401B301FE
:10034000C3D35B016C0120E030E04AE755E446D2BC
:100350007B018C0120E030E040E85FE38AD3882312
:100360001CF461E070E01FC0C801B70120E03FEF5E
:100370004FE757E428D318169CF4C601B50120E0D6
:1003800030E040E251E42AD265D006C080E991E035
:100390000197F1F76150704061157105B9F706C01A
:1003A000C801B70157D0CB010197F1F766DE33E5FD
:1003B000398384E58A8321E42B8332E53C838DE015
:1003C0008D832AE02E831F82C2014DDE00E010E003
:1003D0009498369A3699FECF0F5F1F4F84B185B13E
:1003E000C801B2014AE050E0ACD7C2013CDEC09A7D
:1003F0005D9BFECF3BE33CB9C098949A369A369900
:10040000FECF94B185B1382E22249101290F311DE0
:10041000C901B2014AE050E094D7C20124DE5D9BDD
:10042000FECF3DE03CB95D9BFECF8AE08CB928E071
:100430000732120769F635E439838EE48A8324E4AF
:100440002B833C833DE03D838AE08E831F82C20183
:100450000ADE78CEEF92FF920F931F937B018C01FF
:1004600020E030E040E05FE4D9D288237CF0C8018E
:10047000B70120E030E040E05FE45ED17FD39B0134
:10048000AC01205030404040504805C0C801B70181
:1004900075D39B01AC01B901CA011F910F91FF9067
:1004A000EF900895A0E0B0E0E7E5F2E0ADC5DC0133
:1004B0002B01FA019C91923008F439C1EB0188813B
:1004C000823008F433C1943069F4843009F02FC1CC
:1004D00011969C9111978981981709F428C1A0E67B
:1004E000B0E025C1843009F421C18230A9F49230F2
:1004F00009F01DC19A01AD0188E0EA010990AE0141
:10050000E90109929E018150C1F7E20189811196AA
:100510009C918923818308C1923009F407C1129606
:100520002D903C901397EB018A819B811496AD909E
:10053000BD90CD90DC901797EC80FD800E811F81DF
:100540009101281B390BB90137FF04C066277727B3
:10055000621B730B603271050CF061C0121613063A
:100560006CF537014801062E04C096948794779461
:1005700067940A94D2F721E030E040E050E004C0F4
:10058000220F331F441F551F6A95D2F72150304068
:10059000404050402E213F21402351232115310559
:1005A0004105510521F021E030E040E050E07901C3
:1005B0008A01E628F728082919293CC0232BD1F104
:1005C000260E371E35014601062E04C096948794E8
:1005D000779467940A94D2F721E030E040E050E04D
:1005E00004C0220F331F441F551F6A95D2F72150B4
:1005F0003040404050402A213B214C215D212115B3
:1006000031054105510521F021E030E040E050E0A6
:1006100059016A01A628B728C828D9280BC0821515
:1006200093052CF01C01AA24BB24650103C0EE2411
:10063000FF24870111969C91D20111968C919817F5
:1006400009F445C0992339F0A80197012A193B09FB
:100650004C095D0906C0A60195012E193F09400B02
:10066000510B57FD08C011823382228224833583C7
:10067000468357831DC081E081833382228288278D
:100680009927DC01821B930BA40BB50B8483958304
:10069000A683B7830DC0220F331F441F551F248329
:1006A0003583468357838281938101979383828325
:1006B0002481358146815781DA01C9010197A10959
:1006C000B1098F5F9F4FAF4FBF4328F30BC091839A
:1006D00033822282EA0CFB1C0C1D1D1DE482F58274
:1006E0000683178383E08083248135814681578187
:1006F00057FF1AC0C901AA2797FDA095BA2F81708C
:100700009070A070B0705695479537952795822BBD
:10071000932BA42BB52B84839583A683B7838281E7
:100720009381019693838283DF0101C0D201CD01C1
:10073000CDB7DEB7E2E184C4A0E2B0E0E1EAF3E0E5
:100740006FC469837A838B839C832D833E834F831D
:100750005887E9E0EE2EF12CEC0EFD1ECE0101963D
:10076000B70181D38E010F5E1F4FCE010596B801F0
:100770007AD38A8991E089278A8BC701B801AE01B3
:10078000475E5F4F8FDE9AD2A096E6E065C4A0E296
:10079000B0E0ECECF3E044C469837A838B839C8300
:1007A0002D833E834F835887F9E0EF2EF12CEC0E1A
:1007B000FD1ECE010196B70156D38E010F5E1F4F6D
:1007C000CE010596B8014FD3C701B801AE01475E0F
:1007D0005F4F68DE73D2A096E6E03EC4A0E2B0E0D0
:1007E000E3EFF3E011C469837A838B839C832D83C9
:1007F0003E834F835887CE010196BE01675F7F4FCE
:1008000032D3CE010596BE016F5E7F4F2CD3998502
:10081000923088F089898230C8F0943019F482309F
:1008200051F404C0843029F4923081F480E690E0E1
:10083000C6C0923049F420E09A858A89981321E055
:100840002A87CE010996BBC0823049F420E09A8500
:100850008A89981321E02A8BCE014196B0C02D845D
:100860003E844F8458886D887E888F88988CEE24CB
:10087000FF248701AA24BB24650140E050E060E02A
:1008800070E0E0E0F0E0C10181709070892BE9F048
:10089000E60CF71C081D191D9A01AB012A0D3B1D22
:1008A0004C1D5D1D80E090E0A0E0B0E0E614F70490
:1008B0000805190520F481E090E0A0E0B0E0BA015D
:1008C000A901480F591F6A1F7B1FAA0CBB1CCC1C17
:1008D000DD1C97FE08C081E090E0A0E0B0E0A82A0F
:1008E000B92ACA2ADB2A3196E032F10549F0660CB2
:1008F000771C881C991C5694479437942794C3CF2F
:10090000FA85EA892B893C898B859C85280F391FBC
:100910002E5F3F4F17C0CA0181709070892B61F024
:1009200016950795F794E79480E090E0A0E0B0E892
:10093000E82AF92A0A2B1B2B769567955795479538
:100940002F5F3F4F77FDE7CF0CC0440F551F661F49
:10095000771F17FD4160EE0CFF1C001F111F215077
:100960003040403090E0590790E0690790E4790703
:1009700060F32B8F3C8FDB01CA018F779070A070E2
:10098000B07080349105A105B10561F447FD0AC03E
:10099000E114F1040105110529F0405C5F4F6F4F30
:1009A0007F4F40781A8EFE1711F081E08A8F4D8FAD
:1009B0005E8F6F8F78A383E0898FCE0149967ED1B9
:1009C000A096E2E13DC3A8E1B0E0E8EEF4E028C380
:1009D00069837A838B839C832D833E834F835887DF
:1009E00089E0E82EF12CEC0EFD1ECE010196B70138
:1009F0003AD28E010F5E1F4FCE010596B80133D259
:100A00008985823038F08989823020F0C701B801A9
:100A1000A2D201C08FEF6896E6E01EC3A8E1B0E065
:100A2000E3E1F5E0FDC269837A838B839C832D83A8
:100A30003E834F83588789E0E82EF12CEC0EFD1E93
:100A4000CE010196B7010FD28E010F5E1F4FCE016E
:100A50000596B80108D28985823038F089898230BC
:100A600020F0C701B80177D201C08FEF6896E6E0A9
:100A7000F3C2A8E1B0E0EEE3F5E0D2C269837A8385
:100A80008B839C832D833E834F83588789E0E82E98
:100A9000F12CEC0EFD1ECE010196B701E4D18E01C2
:100AA0000F5E1F4FCE010596B801DDD189858230DA
:100AB00038F08989823020F0C701B8014CD201C0DA
:100AC00081E06896E6E0C8C2A8E0B0E0E9E6F5E0BB
:100AD000A4C29B01AC0183E08983DA01C9018827A4
:100AE000B7FD83959927AA27BB27B82E2115310575
:100AF0004105510519F482E0898339C08823A9F0A2
:100B0000203080E0380780E0480780E8580729F463
:100B100060E070E080E09FEC2EC0EE24FF248701AF
:100B2000E21AF30A040B150B02C079018A018EE167
:100B3000C82ED12CDC82CB82ED82FE820F831887F7
:100B4000C801B7016CD001971816190684F4082E55
:100B500004C0EE0CFF1C001F111F0A94D2F7ED8297
:100B6000FE820F831887C81AD90ADC82CB82BA8228
:100B7000CE010196A3D02896E9E06BC2ACE0B0E0CC
:100B8000E3ECF5E051C269837A838B839C83CE01C9
:100B90000196BE016B5F7F4F66D18D81823061F11E
:100BA000823050F1843021F48E81882351F12EC09F
:100BB0002F81388537FD20C06E812F3131051CF023
:100BC0006623F9F023C08EE190E0821B930B298508
:100BD0003A854B855C8504C0569547953795279592
:100BE0008A95D2F76623B1F05095409530952195BE
:100BF0003F4F4F4F5F4F0EC020E030E040E050E0ED
:100C000009C02FEF3FEF4FEF5FE704C020E030E077
:100C100040E050E8B901CA012C96E2E021C2EF920F
:100C2000FF920F931F937B018C0180E0E81680E018
:100C3000F80681E0080780E0180788F48FEFE816CF
:100C4000F1040105110531F028F088E090E0A0E002
:100C5000B0E017C080E090E0A0E0B0E012C080E01B
:100C6000E81680E0F80680E0080781E0180728F021
:100C700088E190E0A0E0B0E004C080E190E0A0E076
:100C8000B0E020E230E040E050E0281B390B4A0B96
:100C90005B0B04C016950795F794E7948A95D2F7F5
:100CA000F701E859FF4F8081281B3109410951099B
:100CB000C9011F910F91FF90EF900895DF92EF927D
:100CC000FF920F931F93FC01E480F580068117814A
:100CD000D1808081823048F480E090E0A0E1B0E0F3
:100CE000E82AF92A0A2B1B2BA5C0843009F49FC0DF
:100CF000823021F4EE24FF24870105C0E114F104C1
:100D00000105110519F4E0E0F0E096C062817381FD
:100D10009FEF623879070CF05BC022E83FEF261B9B
:100D2000370B2A3131052CF020E030E040E050E074
:100D30002AC0B801A701022E04C076956795579581
:100D400047950A94D2F781E090E0A0E0B0E004C0BB
:100D5000880F991FAA1FBB1F2A95D2F70197A109D7
:100D6000B1098E219F21A023B1230097A105B105D0
:100D700021F081E090E0A0E0B0E09A01AB01282BE7
:100D8000392B4A2B5B2BDA01C9018F779070A07049
:100D9000B07080349105A105B10539F427FF09C071
:100DA000205C3F4F4F4F5F4F04C0215C3F4F4F4F80
:100DB0005F4FE0E0F0E02030A0E03A07A0E04A0713
:100DC000A0E45A0710F0E1E0F0E079018A0127C0C1
:100DD0006038710564F5FB01E158FF4FD801C70188
:100DE0008F779070A070B07080349105A105B10527
:100DF00039F4E7FE0DC080E490E0A0E0B0E004C06C
:100E00008FE390E0A0E0B0E0E80EF91E0A1F1B1F80
:100E100017FF05C016950795F794E794319687E07C
:100E200016950795F794E7948A95D1F705C0EE24B7
:100E3000FF248701EFEFF0E06E2F67956627679537
:100E4000902F9F77D794DD24D7948E2F8695492FA6
:100E5000462B582F5D29B701CA011F910F91FF90B2
:100E6000EF90DF900895FC01DB01408151812281E8
:100E7000622F6F7770E0221F2227221F9381892F14
:100E8000880F822B282F30E0991F9927991F1196E0
:100E90009C93119721153105A9F54115510561055F
:100EA000710511F482E037C082E89FEF13969C939E
:100EB0008E9312979A01AB0167E0220F331F441FF4
:100EC000551F6A95D1F783E08C930DC0220F331F15
:100ED000441F551F12968D919C911397019713965D
:100EE0009C938E931297203080E0380780E048076B
:100EF00080E4580758F314962D933D934D935C93DB
:100F0000179708952F3F310579F441155105610573
:100F1000710519F484E08C93089564FF03C081E0A7
:100F20008C9312C01C9210C02F57304013963C93E4
:100F30002E93129783E08C9387E0440F551F661F12
:100F4000771F8A95D1F7706414964D935D936D93D6
:100F50007C93179708951F93DC01FB019C919230BD
:100F600008F447C08081823008F443C0943051F4C3
:100F700011961C91843099F58181682F70E0611B76
:100F800071093FC0843021F0923031F48230B9F1E0
:100F90008181882389F12DC011961C91119782308F
:100FA000F1F081811817D9F412962D913C91139785
:100FB000828193818217930794F028173907BCF038
:100FC00014968D919D910D90BC91A02D2481358119
:100FD00046815781281739074A075B0718F4112300
:100FE00041F00AC082179307A407B50740F4112304
:100FF00019F061E070E005C06FEF7FEF02C060E0C4
:1010000070E0CB011F9108952F923F924F925F9213
:101010006F927F928F929F92AF92BF92CF92DF9208
:10102000EF92FF920F931F93CF93DF93CDB7DEB76D
:10103000CA1BDB0B0FB6F894DEBF0FBECDBF099401
:101040002A88398848885F846E847D848C849B8458
:10105000AA84B984C884DF80EE80FD800C811B8166
:10106000AA81B981CE0FD11D0FB6F894DEBF0FBE95
:10107000CDBFED0108952F923F925F926F927F92C4
:101080008F929F92AF92BF92CF92DF92EF92FF9298
:101090000F931F93CF93DF938C011B01EA0161151E
:1010A000710519F0FB0191838083209749F0CE01EF
:1010B0000297839728F020E030E040E050E0F3C052
:1010C000F801A1908F018A2D90E001D1892BC1F701
:1010D000FDE2AF1631F4F801A1908F01552453942D
:1010E00007C0FBE2AF1619F4F801A1908F01552457
:1010F000209719F0C031D105C1F4F0E3AF1679F4AF
:10110000F8018081883711F0883549F4F801A18011
:101110000E5F1F4FF2E05F2AC0E1D0E006C02097CB
:1011200021F480E3A816E9F427C0C830D10531F1D5
:10113000C930D10524F4C230D10531F50CC0CA3014
:10114000D10589F0C031D105F9F4C12CD12CE12CA5
:10115000B8E0FB2E27C0C12CD12CE12CA0E4FA2E44
:1011600021C0CAE0D0E0FCECCF2EFCECDF2EFCEC82
:10117000EF2EFCE0FF2E16C0C8E0D0E0C12CD12C31
:10118000E12CE0E1FE2E0EC09E01442737FD409584
:10119000542F60E070E080E090E82DD1C901DA01C1
:1011A0006C017D0120E030E040E050E060E03E0175
:1011B000882477FC8094982C70EDB72EBA0CE9E067
:1011C000EB1570F48A2D81548A3118F499ECB92EFC
:1011D00006C08A2D81568A3148F589EAB82EBA0CA4
:1011E0008B2D90E08C179D070CF56F3FD9F0C21640
:1011F000D306E406F506A8F0CA01B901A4019301DB
:10120000C7D09B01AC012B0D311D411D511D21305B
:10121000F0E03F07F0E04F07F0E85F0710F461E00F
:1012200001C06FEFF801A1908F01C6CF21143104E6
:1012300081F0662331F001501040F10111830083E9
:1012400008C051FE1AC002501040F1011183008302
:1012500014C067FF12C050FC05C02FEF3FEF4FEFE7
:101260005FE704C020E030E040E050E882E290E038
:10127000909369018093680116C050FE08C0509594
:101280004095309521953F4F4F4F5F4F0CC057FF12
:101290000AC082E290E090936901809368012FEF89
:1012A0003FEF4FEF5FE7B901CA01DF91CF911F9187
:1012B0000F91FF90EF90DF90CF90BF90AF909F90F5
:1012C0008F907F906F905F903F902F900895911135
:1012D0004CC0803219F089508550D0F70895FA013A
:1012E000CF93FF93EF9322303CF125322CF5C22FA0
:1012F000E894CA3049F497FB3EF490958095709538
:1013000061957F4F8F4F9F4F2C2F332744275527B1
:10131000FF93EF9370D0EF91FF91605D6A330CF013
:10132000695D6193B901CA0160507040804090408E
:1013300059F716F4CDE2C19310828F919F91CF910E
:1013400017C0FB019F0142306CF045325CF4642F02
:1013500077273DD0805D8A330CF0895D8193CB0186
:101360000097A9F71082C90103C09927882708951B
:10137000DC01FC01672F71917723E1F7329704C0FC
:101380007C916D9370836291AE17BF07C8F3089587
:10139000629FD001739FF001829FE00DF11D649F59
:1013A000E00DF11D929FF00D839FF00D749FF00DE5
:1013B000659FF00D9927729FB00DE11DF91F639F86
:1013C000B00DE11DF91FBD01CF0111240895AA1B25
:1013D000BB1B51E107C0AA1FBB1FA617B70710F020
:1013E000A61BB70B881F991F5A95A9F78095909552
:1013F000BC01CD010895A1E21A2EAA1BBB1BFD0161
:101400000DC0AA1FBB1FEE1FFF1FA217B307E407E3
:10141000F50720F0A21BB30BE40BF50B661F771F3B
:10142000881F991F1A9469F760957095809590951B
:101430009B01AC01BD01CF010895F894FFCF0000DE
:101440000000000000000001020203030303040483
:101450000404040404040505050505050505050542
:101460000505050505050606060606060606060622
:10147000060606060606060606060606060606060C
:1014800006060606060607070707070707070707F2
:1014900007070707070707070707070707070707DC
:1014A00007070707070707070707070707070707CC
:1014B00007070707070707070707070707070707BC
:1014C00007070707070708080808080808080808A2
:1014D000080808080808080808080808080808088C
:1014E000080808080808080808080808080808087C
:1014F000080808080808080808080808080808086C
:10150000080808080808080808080808080808085B
:10151000080808080808080808080808080808084B
:10152000080808080808080808080808080808083B
:10153000080808080808080808080808080808082B
:10154000080808080808FFFFFFFFFFFFFFFFFFFF75
:10155000FFFFFFFFFFFFFFFFFFFFFFFFFFFFFFFF9B
:10156000FFFFFFFFFFFFFFFFFFFFFFFFFFFFFFFF8B
:10157000FFFFFFFFFFFFFFFFFFFFFFFFFFFFFFFF7B
:10158000FFFFFFFFFFFFFFFFFFFFFFFFFFFFFFFF6B
:00000001FF
