:1000000012C021C020C01FC01EC01DC01CC01BC00C
:100010001AC019C018C017C016C015C014C013C02C
:1000200012C011C010C011241FBECFE5D4E0DEBF46
:10003000CDBF20E0A0E6B0E001C01D92A236B2071D
:10004000E1F737D0FFC4DCCF5D9BFECF8CB90895BC
:10005000CF93DF93EC018881882329F02196F4DF88
:1000600089918111FCCFDF91CF910895949A929854
:100070009298929892989298929892989298929830
:100080009298929892989298929892989298929820
:100090009298929892989298929A089587E298E00E
:1000A0009498949894989498949A01970097C1F78B
:1000B0000895CF93DF93CDB7DEB72E970FB6F894A0
:1000C000DEBF0FBECDBF8C9A8B9A8A9AB89A539A8C
:1000D000549A80B5866880BD10BC599A82E289B96D
:1000E00080E487B987E886B99398949A929AD6DF84
:1000F000D5DFD4DFD3DFD2DFD1DFD0DFCFDF0F2EEC
:10010000F4E6CF2ED12CE12CF12CF02D0DE01AE0ED
:100110000F2EF0E92F2E33243394F02DC0985F9BDF
:10012000FECF8CB1893409F048C05F9BFECF8CB103
:1001300089835F9BFECF8CB18A835F9BFECF8CB19E
:100140008B835F9BFECF8CB18C835F9BFECF8CB18A
:100150008D835F9BFECF8CB18E831F82CE01019673
:1001600077DF802F71DF812F6FDF4AE050E0BE0123
:10017000685F7F4FCE0101968AD26B017C0189E4D2
:1001800063DF212FAE014F5F5F4FC701B601B8D3C8
:10019000802F5ADF812F58DFCE01019659DF802F43
:1001A00053DF812F51DFCE01089652DF802F4CDFC5
:1001B000812F4ADF85E448DFB1CF8A3409F08FC050
:1001C0005F9BFECF8CB189835F9BFECF8CB18A830E
:1001D0005F9BFECF8CB18B835F9BFECF8CB18C83FA
:1001E0005F9BFECF8CB18D835F9BFECF8CB18E83E6
:1001F0001F82CE0101962CDF4AE050E0BE01685F0D
:100200007F4FCE01019643D26B017C01C09A2EDF55
:1002100045DFC701B60124D12B013C0120E030E0CD
:100220004AE755E4A9D14B015C0120E030E040E809
:100230005FE3E4D088230CF120E03FEF4FE757E481
:10024000C501B40195D11816A4F420E030E040E2D5
:1002500051E4C301B20190D1D5D06115710591F07F
:10026000C1010197F1F76150710961157105C1F77D
:1002700009C0C501B401C6D002C061E070E0CB0185
:100280000197F1F7F3DE8AE4DFDE0F2EF7E2AF2EFF
:10029000F02D6894BB24B3F8912C9498369A369933
:1002A000FECF892DD1DE949A369A3699FECF84B14D
:1002B00095B0CADE81E0A81AB108A114B10469F7AB
:1002C000892DC2DE80E0C0DE8FEFBEDE8FEFBCDEA8
:1002D0008FEFBADE8FEFB8DE8FEFB6DE1FCFC09A9A
:1002E000C5DEDCDEC701B601BBD02B013C0120E03E
:1002F00030E04AE755E440D14B015C0120E030E0BA
:1003000040E85FE37BD088230CF120E03FEF4FE72C
:1003100057E4C501B4012CD11816A4F420E030E054
:1003200040E251E4C301B20127D16CD061157105DF
:1003300091F0C1010197F1F76150710961157105E3
:10034000C1F709C0C501B4015DD002C061E070E031
:10035000CB010197F1F78ADE83E5898384E58A83FF
:1003600081E48B8382E58C830D831E831F82CE0103
:1003700001966EDEAA24A394B12C9498369A3699ED
:10038000FECF84B185B1412FBE016F5F7F4FC501A4
:10039000E6D2CE0101965CDEC09A8BE355DEC098B2
:1003A000949A369A3699FECF24B185B190E0982F71
:1003B0008827412FBE016F5F7F4F820F911DCFD2E3
:1003C000CE01019645DE802F3FDE812F3DDE8FEF8F
:1003D000A81AB80A88E2A81688E0B80671F685E47B
:1003E00089838EE48A8384E48B8385E48C830D8304
:1003F0001E831F82CE0101962BDE90CE6CD008F4B6
:1004000081E0089594D088F09F5790F0B92F9927F4
:10041000B751A0F0D1F0660F771F881F991F1AF00F
:10042000BA95C9F712C0B13081F09BD0B1E0089500
:1004300098C0672F782F8827B85F39F0B93FCCF381
:10044000869577956795B395D9F73EF49095809505
:10045000709561957F4F8F4F9F4F0895E89409C025
:1004600097FB3EF490958095709561957F4F8F4FE7
:100470009F4F9923A9F0F92F96E9BB279395F695FD
:10048000879577956795B795F111F8CFFAF4BB0F7B
:1004900011F460FF1BC06F5F7F4F8F4F9F4F16C0DF
:1004A000882311F096E911C0772321F09EE8872F69
:1004B000762F05C0662371F096E8862F70E060E025
:1004C0002AF09A95660F771F881FDAF7880F96959E
:1004D000879597F90895990F0008550FAA0BE0E842
:1004E000FEEF16161706E807F907C0F012161306F6
:1004F000E407F50798F0621B730B840B950B39F436
:100500000A2661F0232B242B252B21F408950A269B
:1005100009F4A140A6958FEF811D811D089557FD17
:100520009058440F551F59F05F3F71F04795880F61
:1005300097FB991F61F09F3F79F0879508951216F8
:1005400013061406551FF2CF4695F1DF08C01616A4
:1005500017061806991FF1CF869571056105089455
:100560000895E894BB2766277727CB0197F908956C
:10057000B2DF08F48FEF08950BD078C069D028F06F
:100580006ED018F0952309F05AC05FC01124EACF4D
:10059000C6DFA0F3959FD1F3950F50E0551F629FE2
:1005A000F001729FBB27F00DB11D639FAA27F00DCC
:1005B000B11DAA1F649F6627B00DA11D661F829FF3
:1005C0002227B00DA11D621F739FB00DA11D621FD8
:1005D000839FA00D611D221F749F3327A00D611DF5
:1005E000231F849F600D211D822F762F6A2F1124D7
:1005F0009F5750408AF0E1F088234AF0EE0FFF1F2A
:10060000BB1F661F771F881F91505040A9F79E3F60
:10061000510570F014C0A6CF5F3FECF3983EDCF3B9
:10062000869577956795B795F795E7959F5FC1F79D
:10063000FE2B880F911D9695879597F9089597F948
:100640009F6780E870E060E008959FEF80EC089578
:1006500000240A94161617061806090608950024A1
:100660000A9412161306140605060895092E03941B
:10067000000C11F4882352F0BB0F40F4BF2B11F48F
:1006800060FF04C06F5F7F4F8F4F9F4F08952F9281
:100690003F925F926F927F928F929F92AF92BF92A2
:1006A000CF92DF92EF92FF920F931F93CF93DF933E
:1006B0008B01EA016115710521F0DB018C93119624
:1006C0009C93209739F09E01225031092332310545
:1006D00008F0F8C07C016701BFEFCB1ADB0A5601B6
:1006E000F7016080862D90E003D1892B11F076010F
:1006F000F2CFFDE26F120AC0570182E0A80EB11CD2
:10070000D70111966C90772473940BC0BBE26B12E7
:1007100007C05701E2E0AE0EB11CD70111966C90F4
:10072000712CCE018F7E892B89F4B0E36B1222C02D
:10073000F50180818F7D883541F56180F2E0AF0E53
:10074000B11C872D8260782EC0E1D0E0C830D10581
:10075000F1F04CF4C230D10511F5C12CD12CE12CB3
:10076000B0E4FB2E2EC0CA30D10531F0C031D10526
:1007700019F115C0209751F7CAE0D0E0ACECCA2EB1
:10078000DC2CEC2CACE0FA2E1CC02097F9F6C8E06B
:10079000D0E0C12CD12CE12CF0E1FF2E12C060E0A2
:1007A00070E080E090E89E01442737FD4095542F8B
:1007B00011D169017A0105C0C12CD12CE12CE8E0EE
:1007C000FE2EF50160E020E030E0A9014E01AA24F0
:1007D00097FCA094BA2C1F0170ED572E560CA9E07F
:1007E000A51570F48FEB860D8A3118F499EC592E0B
:1007F00006C08FE9860D8A3128F589EA582E560CF5
:10080000852D90E08C179D07ECF467FD17C0C2168C
:10081000D306E406F50678F0C501B401CCD09B01FF
:10082000AC01250D311D411D511D21303105410502
:10083000B0E85B0710F06FEF01C061E03196D101C5
:100840006C90C9CF872D81700115110571F0662359
:1008500029F03197D801ED93FC9307C071FE19C0C0
:100860003297D801ED93FC9314C067FF12C0882320
:1008700029F020E030E040E050E804C02FEF3FEFE7
:100880004FEF5FE782E290E0909361008093600019
:1008900016C0882341F050954095309521953F4FE3
:1008A0004F4F5F4F0CC057FF0AC082E290E0909319
:1008B0006100809360002FEF3FEF4FEF5FE7B901DA
:1008C000CA0104C060E070E080E090E0DF91CF9169
:1008D0001F910F91FF90EF90DF90CF90BF90AF905E
:1008E0009F908F907F906F905F903F902F90089592
:1008F00091114EC0803219F089508550D0F708957B
:10090000BB272A3051F4992342F4BDE2909580959B
:10091000709561957F4F8F4F9F4F01C0BB27FA01A4
:10092000A62F6217710581059105330B30FB66F028
:10093000AA27660F771F881F991FAA1FA21710F0FA
:10094000A21B63953850A9F7A05DAA3308F0A95DF2
:10095000A19336F7B111B1931082CA011CC0BB2715
:10096000FB015527AA27880F991FAA1FA41710F06B
:10097000A41B83955051B9F7A05DAA3308F0A95D77
:10098000A193009779F7B111B1931192CB0103C0F4
:10099000992788270895DC01FC01672F719177233F
:1009A000E1F7329704C07C916D9370836291AE172A
:1009B000BF07C8F30895DB018F939F932DD0BF919C
:1009C000AF91A29F800D911DA39F900DB29F900D9E
:1009D00011240895A1E21A2EAA1BBB1BFD010DC014
:1009E000AA1FBB1FEE1FFF1FA217B307E407F507DF
:1009F00020F0A21BB30BE40BF50B661F771F881FBB
:100A0000991F1A9469F760957095809590959B0150
:100A1000AC01BD01CF01089509D0A59F900DB49FF1
:100A2000900DA49F800D911D11240895A29FB001E7
:100A3000B39FC001A39F01D0B29F700D811D1124EF
:080A4000911D0895F894FFCF09
:00000001FF
